:1000BC000A083F065B4F666D7D077F6F0A12C0F919
:1000CC00A4B0999282F88090041E01020408021CCC
:0200DC00000022
:10008F00C3E51D9405E51C940050217F0A7E0012E4
:10009F0000DFAF1D741E2FF8E6F5A074122FF8E6DF
:0D00AF00F580051DE51D70D8051C80D422CC
:0900F300007F0B7EBEDEFEDFFC87
:0100FC0022E1
:1000DF00AD07AC06ED1DAE0470011C4E600512009D
:0400EF00F380F12287
:03000000020003F8
:0C000300787FE4F6D8FD75812102004AE8
:10000F0002008FE493A3F8E493A34003F68001F278
:10001F0008DFF48029E493A3F85407240CC8C333F2
:10002F00C4540F4420C8834004F456800146F6DFC1
:10003F00E4800B01020408102040809000BCE47E95
:10004F00019360BCA3FF543F30E509541FFEE493B6
:10005F00A360010ECF54C025E060A840B8E493A37D
:10006F00FAE493A3F8E493A3C8C582C8CAC583CAA8
:10007F00F0A3C8C582C8CAC583CADFE9DEE780BE60
:0100DE000021
:00000001FF
