:1000B8000A083F065B4F666D7D077F6F04140102D7
:0600C80004080212000012
:10008F00C3E5139409E5129400501D7F0A7E0012F8
:10009F0000CFE4F5A074082513F8E6F4F5800513F6
:0900AF00E51370DC051280D82273
:0900E300007F0B7EBEDEFEDFFC97
:0100EC0022F1
:1000CF00AD07AC06ED1DAE0470011C4E60051200AD
:0400DF00E380F122A7
:03000000020003F8
:0C000300787FE4F6D8FD75811702004AF2
:10000F0002008FE493A3F8E493A34003F68001F278
:10001F0008DFF48029E493A3F85407240CC8C333F2
:10002F00C4540F4420C8834004F456800146F6DFC1
:10003F00E4800B01020408102040809000B8E47E99
:10004F00019360BCA3FF543F30E509541FFEE493B6
:10005F00A360010ECF54C025E060A840B8E493A37D
:10006F00FAE493A3F8E493A3C8C582C8CAC583CAA8
:10007F00F0A3C8C582C8CAC583CADFE9DEE780BE60
:0100CE000031
:00000001FF
